:020000040800F2
:1000000000280020DD120008651100086B110008AF
:1000100071110008771100087D1100080000000030
:100020000000000000000000000000008311000834
:100030008F110008000000009B110008A7110008A4
:1000400025130008251300082513000825130008B0
:1000500025130008251300082513000825130008A0
:100060002513000825130008251300082513000890
:100070002513000825130008251300082513000880
:100080002513000825130008251300082513000870
:100090002513000825130008251300082513000860
:1000A0002513000825130008251300082513000850
:1000B000B5110008251300080000000025130008F2
:1000C00025130008000000000000000025130008B0
:1000D00000000000251300082513000800000000A0
:1000E0002513000825130008251300080000000050
:1000F0000000000000000000000000000000000000
:0C01000000000000000000005FF808F1A3
:10010C0010B5054C237833B9044B13B10448AFF345
:10011C0000800123237010BD4C0000200000000063
:10012C002429000808B5034B1BB103490348AFF35E
:10013C00008008BD000000005000002024290008A9
:10014C0080B483B000AF7860094A7B6852F82330E2
:10015C00012B06D1064A7B68002142F823100123AB
:10016C0000E0002318460C37BD4680BC704700BF2A
:10017C007800002080B582B000AF00237B6012E0D5
:10018C00444A7B6852F8232043497B6841F823207A
:10019C00424A7B6852F823203E497B6841F8232071
:1001AC007B6801337B607B68022BE9DD4FF40051E7
:1001BC003B4801F09DFB03461A46384B1A604FF43E
:1001CC008041374801F094FB03461A46334B5A6082
:1001DC004FF40041324801F08BFB03461A462F4B7B
:1001EC009A6000233B604DE02A4A3B6852F823207A
:1001FC002A493B6851F823309A4240D1264A3B6841
:10020C0052F8232023493B6851F823309A4236D1C7
:10021C00244A3B6852F8232020493B6851F823308C
:10022C009A4218D01D4A3B6852F823201D493B685E
:10023C0041F823201B4A3B6852F82330002B1ED177
:10024C00194A3B68012142F82310184A3B683221B5
:10025C0042F8231013E0154A3B6852F823305A1E1B
:10026C0012493B6841F82320104A3B6852F823306E
:10027C00002B04D10B4A3B68012142F823103B6848
:10028C0001333B603B68022BAEDD00BF00BF08377B
:10029C00BD4680BD0C00002018000020000000208E
:1002AC000010014024000020780000208400002071
:1002BC0080B400AF1A4B1B681A4A82FB03129210CF
:1002CC00DB17D31A184A1360154B1968154B83FBAF
:1002DC0001239A10CB17D21A13469B0013445B00D0
:1002EC00CA1A114B5A60114B1B680E4A82FB03123F
:1002FC009210DB17D31A0C4A93600C4B1968094BFC
:10030C0083FB01239A10CB17D21A13469B0013447C
:10031C005B00CA1A044BDA6000BFBD4680BC704754
:10032C007000002067666666900000207400002054
:10033C0080B500AF0B4B9B68012B10D10A4B1B688F
:10034C00013B094A1360094B1B68013B074A1360C8
:10035C00FFF7AEFF4FF47A71022000F057FE00BF9A
:10036C0080BD00BFF400002070000020740000204D
:10037C0080B500AF614B1B68042B00F2B38001A267
:10038C0052F823F0A5030008B9030008070400087D
:10039C0055040008A3040008FFF78AFF574B0122FD
:1003AC001A60FA21012000F031FEA4E00022402165
:1003BC00534801F0B4FA01228021514801F0AFFA00
:1003CC0001224FF480714E4801F0A9FA01224FF43A
:1003DC0000714B4801F0A3FA4A4B1B68184600F019
:1003EC0013FB494B5B68012B7ED1444B02221A60F4
:1003FC00FA21012000F00AFE76E00122402140485B
:10040C0001F08DFA002280213D4801F088FA01228A
:10041C004FF480713A4801F082FA01224FF40071D6
:10042C00374801F07CFA374B5B68184600F0ECFA61
:10043C00354B5B68012B59D1304B03221A60FA21E2
:10044C00012000F0E3FD51E0012240212C4801F095
:10045C0066FA012280212A4801F061FA00224FF449
:10046C008071274801F05BFA01224FF40071244897
:10047C0001F055FA234B9B68184600F0C5FA224B45
:10048C005B68012B34D11D4B04221A60FA21012028
:10049C0000F0BCFD2CE001224021194801F03FFA8C
:1004AC0001228021164801F03AFA01224FF48071A2
:1004BC00134801F034FA00224FF40071104801F097
:1004CC002EFA104BDB68184600F09EFA0E4B5B6858
:1004DC00012B0FD1094B01221A60FA21012000F0E7
:1004EC0095FD07E000BF06E000BF04E000BF02E09E
:1004FC0000BF00E000BF00BF80BD00BF680000204F
:10050C000008014090000020F400002080B500AFEE
:10051C00434B1B68042B78D801A252F823F000BF80
:10052C00410500086705000893050008BF05000891
:10053C00EB0500083B4B1B683B4A13603B4B1B68AD
:10054C003B4A1360FFF7B4FE4FF47A71022000F0BF
:10055C005DFD334B01221A6060E000F04BFE00F0B1
:10056C0075FE314B1B68002B51D1324B1B682E4A48
:10057C001360304B1B682E4A1360FFF799FE284B13
:10058C0002221A6043E000F04BFE00F05FFE264BA7
:10059C001B68002B3DD1254B1B68234A1360214B54
:1005AC001B68234A1360FFF783FE1D4B03221A605E
:1005BC002FE000F009FE00F05FFE1D4B1B68002BC6
:1005CC0029D11C4B1B68184A13601A4B1B68184A1C
:1005DC001360FFF76DFE124B04221A601BE000F053
:1005EC0061FE00F0F1FD124B1B68002B15D10D4B79
:1005FC001B680D4A13600D4B1B680D4A1360FFF707
:10060C0057FE074B01221A6007E000BF06E000BF4F
:10061C0004E000BF02E000BF00E000BF00BF80BDEF
:10062C006C000020380000207000002034000020F6
:10063C00740000203C00002080B500AFFFF766FF7F
:10064C00FFF796FEFFF774FE00BF80BD80B400AFCD
:10065C00074B1B680133064A1360054B1B68642B60
:10066C0002D1034B00221A6000BFBD4680BC70470C
:10067C007000002080B500AF894B1B68013B032B39
:10068C0000F2AE8101A252F823F000BFA9060008C7
:10069C00D90600085B070008DD070008FFF7CCFF50
:1006AC000020FFF74DFD0346002B00F09B817D4B96
:1006BC0000221A607C4B01221A60FFF7F9FD7B4B7C
:1006CC0000221A60764B02221A608BE100F07CFD4E
:1006DC0000F0BCFD0120FFF733FD0346002B03D0D7
:1006EC00FFF7B4FFFFF7E4FD0020FFF729FD0346F9
:1006FC00002B11D06E4B4FF0FF321A60694B002269
:10070C001A60694B02221A60FFF7D2FD674B002278
:10071C001A60634B03221A600220FFF711FD034697
:10072C00002B11D05F4B1B68614A13605D4B00229C
:10073C001A605D4B02221A60FFF7BAFD5B4B002278
:10074C001A60574B03221A60FFF712FE4BE100F0C0
:10075C0067FD00F0A7FD0120FFF7F2FC0346002B1C
:10076C0003D0FFF773FFFFF7A3FD0020FFF7E8FCB2
:10077C000346002B11D04F4B4FF0FF321A60494B00
:10078C0000221A60484B02221A60FFF791FD474B7A
:10079C0000221A60424B04221A600220FFF7D0FCA0
:1007AC000346002B11D03F4B1B68424A13603D4B54
:1007BC0000221A603C4B02221A60FFF779FD3B4B7A
:1007CC0000221A60364B04221A60FFF7D1FD0AE1B1
:1007DC0000F010FD00F050FD0120FFF7B1FC0346C6
:1007EC00002B03D0FFF732FFFFF762FD0020FFF76D
:1007FC00A7FC0346002B7CD02F4B4FF0FF321A6026
:10080C002B4B1B68B3F1FF3F04D12B4B1B68B3F18F
:10081C00FF3F13D0284B1B68B3F1FF3F04D1254B8E
:10082C001B68B3F1FF3F09D0224B1B68B3F1FF3FAC
:10083C000ED11F4B1B68B3F1FF3F09D11C4B052296
:10084C001A601D4B03221A601A4B02221A6047E0F1
:10085C00174B1B68B3F1FF3F07D1174B1A68154BA9
:10086C001B681344124A13603AE0134B1B68B3F134
:10087C00FF3F07D10E4B1A680E4B1B68D31A0E4A5A
:10088C0013602DE00B4B1B68B3F1FF3F16D1084BE7
:10089C001A68094B1B68D31A064A136020E000BF84
:1008AC003000002070000020740000206800002040
:1008BC00340000203C000020380000204B4B1A680C
:1008CC004B4B1B681A444B4B1B689A4208D0494B44
:1008DC0005221A60454B03221A60454B02221A600E
:1008EC00454B00221A60454B00221A60444B0122F2
:1008FC001A600220FFF724FC0346002B6DD0414BFD
:10090C001B683A4A13603B4B1B68B3F1FF3F04D1A1
:10091C00364B1B68B3F1FF3F13D0344B1B68B3F15C
:10092C00FF3F04D1324B1B68B3F1FF3F09D0304B72
:10093C001B68B3F1FF3F0ED12E4B1B68B3F1FF3F89
:10094C0009D12C4B05221A60284B03221A60284B24
:10095C0002221A6038E0274B1B68B3F1FF3F07D126
:10096C00224B1A68224B1B681344224A13602BE05B
:10097C001E4B1B68B3F1FF3F07D11E4B1A681C4B73
:10098C001B68D31A194A13601EE0194B1B68B3F18C
:10099C00FF3F07D1174B1A68144B1B68D31A144A24
:1009AC00136011E0114B1A68114B1B681A44114B60
:1009BC001B689A4208D00F4B05221A600B4B03227E
:1009CC001A600B4B02221A600B4B00221A600B4B65
:1009DC0000221A600A4B01221A60FFF7C9FC02E0E0
:1009EC0000BF00E000BF00BF80BD00BF380000208A
:1009FC003C00002034000020680000206C00002027
:100A0C00300000207000002080B582B000AF78600C
:100A1C007B68092B34D801A252F823F0510A000844
:100A2C00570A00085D0A0008630A0008690A0008F2
:100A3C006F0A0008750A00087B0A0008810A000882
:100A4C00870A000800F022F81BE000F049F818E0D3
:100A5C0000F070F815E000F097F812E000F0BEF826
:100A6C000FE000F0E5F80CE000F00CF909E000F004
:100A7C0033F906E000F05AF903E000F081F900E0E8
:100A8C0000BF00BF0837BD4680BD00BF80B500AFBA
:100A9C0000220121114800F042FF002202210F48E0
:100AAC0000F03DFF002204210C4800F038FF00222A
:100ABC0008210A4800F033FF00221021074800F0FB
:100ACC002EFF00222021054800F029FF01224021A1
:100ADC00024800F024FF00BF80BD00BF000C0140A5
:100AEC0080B500AF01220121114800F018FF00224F
:100AFC0002210F4800F013FF002204210C4800F0E3
:100B0C000EFF012208210A4800F009FF01221021E2
:100B1C00074800F004FF01222021054800F0FFFEE9
:100B2C0001224021024800F0FAFE00BF80BD00BF48
:100B3C00000C014080B500AF00220121114800F0EB
:100B4C00EEFE002202210F4800F0E9FE01220421F2
:100B5C000C4800F0E4FE002208210A4800F0DFFEF9
:100B6C0000221021074800F0DAFE0122202105485E
:100B7C0000F0D5FE00224021024800F0D0FE00BF5C
:100B8C0080BD00BF000C014080B500AF00220121E8
:100B9C00114800F0C4FE002202210F4800F0BFFEF5
:100BAC00002204210C4800F0BAFE002208210A4859
:100BBC0000F0B5FE01221021074800F0B0FE012222
:100BCC002021054800F0ABFE00224021024800F035
:100BDC00A6FE00BF80BD00BF000C014080B500AF79
:100BEC0001220121114800F09AFE002202210F4837
:100BFC0000F095FE002204210C4800F090FE01222A
:100C0C0008210A4800F08BFE01221021074800F051
:100C1C0086FE00222021054800F081FE00224021A2
:100C2C00024800F07CFE00BF80BD00BF000C0140FC
:100C3C0080B500AF00220121114800F070FE0122A6
:100C4C0002210F4800F06BFE002204210C4800F03A
:100C5C0066FE002208210A4800F061FE01221021E4
:100C6C00074800F05CFE00222021054800F057FEEA
:100C7C0000224021024800F052FE00BF80BD00BFA0
:100C8C00000C014080B500AF00220121114800F09A
:100C9C0046FE012202210F4800F041FE00220421F1
:100CAC000C4800F03CFE002208210A4800F037FEF8
:100CBC0000221021074800F032FE002220210548B6
:100CCC0000F02DFE00224021024800F028FE00BF5B
:100CDC0080BD00BF000C014080B500AF0022012197
:100CEC00114800F01CFE002202210F4800F017FEF4
:100CFC00002204210C4800F012FE012208210A48AF
:100D0C0000F00DFE01221021074800F008FE012220
:100D1C002021054800F003FE01224021024800F08A
:100D2C00FEFD00BF80BD00BF000C014080B500AFD0
:100D3C0000220121114800F0F2FD002202210F488F
:100D4C0000F0EDFD002204210C4800F0E8FD00222B
:100D5C0008210A4800F0E3FD00221021074800F0AA
:100D6C00DEFD00222021054800F0D9FD00224021A3
:100D7C00024800F0D4FD00BF80BD00BF000C014054
:100D8C0080B500AF00220121114800F0C8FD0022FF
:100D9C0002210F4800F0C3FD002204210C4800F092
:100DAC00BEFD002208210A4800F0B9FD01221021E5
:100DBC00074800F0B4FD00222021054800F0AFFDEB
:100DCC0000224021024800F0AAFD00BF80BD00BFF8
:100DDC00000C014080B500AF00F0A0FA00F00CF858
:100DEC0000F092F800F044F8024801F0DDF9FFF74A
:100DFC0041FCFCE7A000002080B590B000AF07F1EB
:100E0C00180328220021184601F07EFD3B1D00220C
:100E1C001A605A609A60DA601A610223BB6101237E
:100E2C00BB621023FB6200237B6307F11803184697
:100E3C0000F08EFD0346002B01D000F0E1F80F23EB
:100E4C007B600023BB600023FB6000233B6100231D
:100E5C007B613B1D0021184600F0FAFF0346002B76
:100E6C0001D000F0CDF800BF4037BD4680BD00007A
:100E7C0080B586B000AF07F1080300221A605A60F3
:100E8C009A60DA603B4600221A605A601D4B4FF0A4
:100E9C0080421A601B4B41F63F725A60194B00227C
:100EAC009A60184B0922DA60164B00221A61154B16
:100EBC0000229A61134801F027F90346002B01D058
:100ECC0000F09EF84FF48053BB6007F108031946FD
:100EDC000C4801F0A5FA0346002B01D000F090F865
:100EEC0000233B6000237B603B461946054801F01C
:100EFC007DFC0346002B01D000F082F800BF1837B0
:100F0C00BD4680BDA000002080B588B000AF07F1C1
:100F1C00100300221A605A609A60DA602E4B9B69AB
:100F2C002D4A43F0100393612B4B9B6903F0100384
:100F3C00FB60FB68284B9B69274A43F004039361D1
:100F4C00254B9B6903F00403BB60BB68224B9B6978
:100F5C00214A43F0080393611F4B9B6903F008037C
:100F6C007B607B68002240F2FF711C4800F0D7FCCC
:100F7C0000227F211A4800F0D2FC4FF460433B6101
:100F8C0000237B610123BB6107F11003194615484F
:100F9C0000F034FB40F2FF733B6101237B610023C3
:100FAC00BB610223FB6107F1100319460B4800F0EB
:100FBC0025FB7F233B6101237B610023BB61022363
:100FCC00FB6107F110031946054800F017FB00BF41
:100FDC002037BD4680BD00BF001002400008014014
:100FEC00000C01400010014080B582B000AF786069
:100FFC0000F02CF8FFF7BEF800BF0837BD4680BDE7
:10100C0080B400AF72B600BFFEE7000080B483B0BE
:10101C0000AF786039603B68094A82FB031292107A
:10102C00DB17D21A07497B6841F82320064A7B68F4
:10103C00002142F8231000BF0C37BD4680BC70471E
:10104C0067666666E8000020F400002080B483B078
:10105C0000AF00237B601CE0124A7B6852F82330FF
:10106C00002B13DD0F4A7B6852F823305A1E0D49B2
:10107C007B6841F823200B4A7B6852F82330002B05
:10108C0004DC094A7B68012142F823107B68013398
:10109C007B607B68022BDFDD00BF00BF0C37BD46D9
:1010AC0080BC7047E8000020F400002080B485B0BC
:1010BC0000AF154B9B69144A43F001039361124B2B
:1010CC009B6903F00103BB60BB680F4BDB690E4AE5
:1010DC0043F08053D3610C4BDB6903F080537B608E
:1010EC007B680A4B5B68FB60FB6823F0E063FB608A
:1010FC00FB6843F08063FB60044AFB68536000BFED
:10110C001437BD4680BC70470010024000000140FF
:10111C0080B584B000AF78607B681B68B3F1804FFA
:10112C0013D10C4BDB690B4A43F00103D361094B20
:10113C00DB6903F00103FB60FB68002200211C202B
:10114C0000F025FA1C2000F03EFA00BF1037BD4617
:10115C0080BD00BF0010024080B400AFFEE780B439
:10116C0000AFFEE780B400AFFEE780B400AFFEE74F
:10117C0080B400AFFEE780B400AF00BFBD4680BCBA
:10118C00704780B400AF00BFBD4680BC704780B4D0
:10119C0000AF00BFBD4680BC704780B500AF00F00B
:1011AC0003F900BF80BD000080B500AF024801F01C
:1011BC0047F800BF80BD00BFA000002080B400AF86
:1011CC0000BFBD4680BC704780B500AF0022012136
:1011DC00074800F0A4FB01220221054800F09FFB08
:1011EC0001220421024800F09AFB00BF80BD00BF21
:1011FC000008014080B500AF01220121074800F032
:10120C008EFB00220221054800F089FB01220421FB
:10121C00024800F084FB00BF80BD00BF0008014005
:10122C0080B500AF01220121074800F078FB0122B4
:10123C000221054800F073FB00220421024800F053
:10124C006EFB00BF80BD00BF0008014080B500AF41
:10125C0000220821074800F062FB012210210548FA
:10126C0000F05DFB01222021024800F058FB00BF7A
:10127C0080BD00BF0008014080B500AF01220821ED
:10128C00074800F04CFB00221021054800F047FBFA
:10129C0001222021024800F042FB00BF80BD00BFAC
:1012AC000008014080B500AF01220821074800F07A
:1012BC0036FB01221021054800F031FB00222021D1
:1012CC00024800F02CFB00BF80BD00BF00080140AD
:1012DC00FFF774FF0B480C490C4A002302E0D4586A
:1012EC00C4500433C4188C42F9D3094A094C002366
:1012FC0001E013600432A242FBD301F0E1FAFFF7E4
:10130C0069FD7047000000204C000020682900088F
:10131C004C00002004010020FEE7000080B500AF67
:10132C00084B1B68074A43F010031360032000F0BE
:10133C0023F90F2000F008F8FFF7B8FE0023184639
:10134C0080BD00BF0020024080B582B000AF786045
:10135C00124B1A68124B1B7819464FF47A73B3FB75
:10136C00F1F3B2FBF3F3184600F03BF90346002B04
:10137C0001D001230EE07B680F2B0AD8002279687C
:10138C004FF0FF3000F003F9064A7B68136000232E
:10139C0000E0012318460837BD4680BD4000002000
:1013AC00480000204400002080B400AF054B1B789F
:1013BC001A46054B1B681344034A136000BFBD4615
:1013CC0080BC7047480000200001002080B400AFB2
:1013DC00024B1B681846BD4680BC704700010020BC
:1013EC0080B485B000AF78607B6803F00703FB60C6
:1013FC000C4BDB68BB60BA684FF6FF031340BB6055
:10140C00FB681A02BB68134343F0BF6343F4003319
:10141C00BB60044ABB68D36000BF1437BD4680BCB8
:10142C00704700BF00ED00E080B400AF044BDB68F8
:10143C001B0A03F007031846BD4680BC704700BF6B
:10144C0000ED00E080B483B000AF0346FB7197F968
:10145C000730002B0BDBFB7903F01F02064997F9D1
:10146C0007305B09012000FA02F241F8232000BF8B
:10147C000C37BD4680BC704700E100E080B483B0FF
:10148C0000AF03463960FB7197F90730002B0ADB7C
:10149C003B68DAB20C4997F907301201D2B20B440F
:1014AC0083F800230AE03B68DAB20849FB7903F0C1
:1014BC000F03043B1201D2B20B441A7600BF0C3757
:1014CC00BD4680BC704700BF00E100E000ED00E0CD
:1014DC0080B489B000AFF860B9607A60FB6803F043
:1014EC000703FB61FB69C3F10703042B28BF04232B
:1014FC00BB61FB690433062B02D9FB69033B00E09B
:10150C0000237B614FF0FF32BB6902FA03F3DA432D
:10151C00BB681A407B699A404FF0FF317B6901FA36
:10152C0003F3D9437B680B40134318462437BD465D
:10153C0080BC704780B582B000AF78607B68013B9F
:10154C00B3F1807F01D301230FE00A4A7B68013B92
:10155C0053600F214FF0FF30FFF790FF054B002237
:10156C009A60044B07221A60002318460837BD46C0
:10157C0080BD00BF10E000E080B582B000AF7860A5
:10158C007868FFF72DFF00BF0837BD4680BD80B5DA
:10159C0086B000AF0346B9607A60FB7300237B61B1
:1015AC00FFF742FF78617A68B9687869FFF790FFB6
:1015BC00024697F90F3011461846FFF75FFF00BF40
:1015CC001837BD4680BD80B582B000AF0346FB71B5
:1015DC0097F907301846FFF735FF00BF0837BD46AF
:1015EC0080BD80B582B000AF78607868FFF7A2FF4D
:1015FC00034618460837BD4680BD000080B48BB04A
:10160C0000AF7860396000237B6200233B6248E1C5
:10161C0001227B6A02FA03F3FB613B681B68FA69DF
:10162C001340BB61BA69FB699A4240F037813B6851
:10163C005B68A34A93425ED0A14A934275D8A14AF3
:10164C00934258D09F4A93426FD89F4A934252D0AC
:10165C009D4A934269D89D4A93424CD09B4A9342EF
:10166C0063D89B4A934246D0994A93425DD8122B39
:10167C002AD8122B59D801A252F823F003170008CC
:10168C00DD160008EF1600083117000837170008A0
:10169C0037170008371700083717000837170008E6
:1016AC0037170008371700083717000837170008D6
:1016BC0037170008371700083717000837170008C6
:1016CC00E5160008F9160008824A934213D02CE064
:1016DC003B68DB683B6229E03B68DB6804333B62B8
:1016EC0024E03B68DB6808333B621FE03B68DB6847
:1016FC000C333B621AE03B689B68002B02D104233D
:10170C003B6213E03B689B68012B05D108233B62CD
:10171C007B68FA691A6109E008233B627B68FA6905
:10172C005A6103E000233B6200E000BFBB69FF2B62
:10173C0001D87B6801E07B6804337B61BB69FF2BBC
:10174C0002D87B6A9B0002E07B6A083B9B003B61F2
:10175C007B691A680F213B6901FA03F3DB431A40DA
:10176C00396A3B6901FA03F31A437B691A603B68D7
:10177C005B6803F08053002B00F09080564B9B6904
:10178C00554A43F001039361534B9B6903F00103EA
:10179C00BB60BB68514A7B6A9B08023352F823300A
:1017AC00FB607B6A03F003039B000F2202FA03F336
:1017BC00DB43FA681340FB607B68494A93420DD0C7
:1017CC007B68484A934207D07B68474A934201D1D1
:1017DC00022304E0032302E0012300E000237A6AE1
:1017EC0002F0030292009340FA681343FB603B49FA
:1017FC007B6A9B080233FA6841F823203B685B68DC
:10180C0003F48013002B06D0384B9A683749BB6918
:10181C0013438B6006E0354B9A68BB69DB43334955
:10182C0013408B603B685B6803F40013002B06D0FD
:10183C002E4BDA682D49BB691343CB6006E02B4B6A
:10184C00DA68BB69DB4329491340CB603B685B68B2
:10185C0003F40033002B06D0244B5A682349BB6990
:10186C0013434B6006E0214B5A68BB69DB431F49AD
:10187C0013404B603B685B6803F48033002B06D04D
:10188C001A4B1A681949BB6913430B6006E0174BD6
:10189C001A68BB69DB43154913400B607B6A013343
:1018AC007B623B681A687B6A22FA03F3002B7FF495
:1018BC00AFAE00BF00BF2C37BD4680BC704700BF29
:1018CC000000321000003110000022100000211026
:1018DC000000121000001110001002400000014026
:1018EC0000080140000C01400010014000040140C0
:1018FC0080B485B000AF78600B467B807B689A68BB
:10190C007B881340002B02D00123FB7301E00023E2
:10191C00FB73FB7B18461437BD4680BC704780B404
:10192C0083B000AF78600B467B8013467B707B786E
:10193C00002B03D07A887B681A6103E07B881A0439
:10194C007B681A6100BF0C37BD4680BC7047000035
:10195C0080B586B000AF78607B68002B01D1012385
:10196C006CE27B681B6803F00103002B00F087809E
:10197C00924B5B6803F00C03042B0CD08F4B5B6811
:10198C0003F00C03082B12D18C4B5B6803F48033EF
:10199C00B3F5803F0BD1894B1B6803F40033002B4C
:1019AC006CD07B685B68002B68D1012346E27B68B6
:1019BC005B68B3F5803F06D1804B1B687F4A43F4CC
:1019CC00803313602EE07B685B68002B0CD17B4B63
:1019DC001B687A4A23F480331360784B1B68774A70
:1019EC0023F4802313601DE07B685B68B3F5A02FA4
:1019FC000CD1724B1B68714A43F4802313606F4BFC
:101A0C001B686E4A43F4803313600BE06B4B1B680E
:101A1C006A4A23F480331360684B1B68674A23F4CB
:101A2C00802313607B685B68002B13D0FFF7CEFC20
:101A3C00386108E0FFF7CAFC02463B69D31A642BF5
:101A4C0001D90323FAE15D4B1B6803F40033002B2F
:101A5C00F0D014E0FFF7BAFC386108E0FFF7B6FCF1
:101A6C0002463B69D31A642B01D90323E6E1534B9D
:101A7C001B6803F40033002BF0D100E000BF7B683F
:101A8C001B6803F00203002B63D04C4B5B6803F024
:101A9C000C03002B0BD0494B5B6803F00C03082B99
:101AAC001CD1464B5B6803F48033002B16D1434B9F
:101ABC001B6803F00203002B05D07B681B69012B0C
:101ACC0001D00123BAE13D4B1B6823F0F8027B687F
:101ADC005B69DB00394913430B603AE07B681B6997
:101AEC00002B20D0364B01221A60FFF76FFC3861B7
:101AFC0008E0FFF76BFC02463B69D31A022B01D9B5
:101B0C0003239BE12D4B1B6803F00203002BF0D049
:101B1C002A4B1B6823F0F8027B685B69DB002749C2
:101B2C0013430B6015E0264B00221A60FFF74EFCA6
:101B3C00386108E0FFF74AFC02463B69D31A022BD6
:101B4C0001D903237AE11D4B1B6803F00203002B20
:101B5C00F0D17B681B6803F00803002B3AD07B683C
:101B6C009B69002B19D0174B01221A60FFF72EFC32
:101B7C00386108E0FFF72AFC02463B69D31A022BB6
:101B8C0001D903235AE10D4B5B6A03F00203002BCE
:101B9C00F0D0012000F09AFA1CE00A4B00221A60E7
:101BAC00FFF714FC38610FE0FFF710FC02463B69AD
:101BBC00D31A022B08D9032340E100BF00100240C6
:101BCC0000004242800442429E4B5B6A03F00203D7
:101BDC00002BE9D17B681B6803F00403002B00F099
:101BEC00A6800023FB75974BDB6903F08053002B19
:101BFC000DD1944BDB69934A43F08053D361914BE5
:101C0C00DB6903F08053BB60BB680123FB758E4B13
:101C1C001B6803F48073002B18D18B4B1B688A4A0A
:101C2C0043F480731360FFF7D1FB386108E0FFF7D2
:101C3C00CDFB02463B69D31A642B01D90323FDE08B
:101C4C00814B1B6803F48073002BF0D07B68DB683E
:101C5C00012B06D17B4B1B6A7A4A43F001031362BA
:101C6C002DE07B68DB68002B0CD1764B1B6A754A28
:101C7C0023F001031362734B1B6A724A23F00403B3
:101C8C0013621CE07B68DB68052B0CD16D4B1B6A67
:101C9C006C4A43F0040313626A4B1B6A694A43F0B3
:101CAC00010313620BE0674B1B6A664A23F00103C6
:101CBC001362644B1B6A634A23F0040313627B6850
:101CCC00DB68002B15D0FFF781FB38610AE0FFF7CA
:101CDC007DFB02463B69D31A41F28832934201D90B
:101CEC000323ABE0574B1B6A03F00203002BEED02F
:101CFC0014E0FFF76BFB38610AE0FFF767FB024665
:101D0C003B69D31A41F28832934201D9032395E0FF
:101D1C004C4B1B6A03F00203002BEED1FB7D012B15
:101D2C0005D1484BDB69474A23F08053D3617B686C
:101D3C00DB69002B00F08180424B5B6803F00C03E5
:101D4C00082B61D07B68DB69022B46D13F4B00220C
:101D5C001A60FFF73BFB386108E0FFF737FB0246E0
:101D6C003B69D31A022B01D9032367E0354B1B685F
:101D7C0003F00073002BF0D17B681B6AB3F5803F36
:101D8C0008D1304B5B6823F400327B689B682D498B
:101D9C0013434B602B4B5B6823F474127B68196AFA
:101DAC007B685B6A0B43274913434B60274B01222B
:101DBC001A60FFF70BFB386108E0FFF707FB0246E0
:101DCC003B69D31A022B01D9032337E01D4B1B6847
:101DDC0003F00073002BF0D02FE01C4B00221A6094
:101DEC00FFF7F4FA386108E0FFF7F0FA02463B69B6
:101DFC00D31A022B01D9032320E0124B1B6803F0EA
:101E0C000073002BF0D118E07B68DB69012B01D14A
:101E1C00012313E00B4B5B68FB60FB6803F480321F
:101E2C007B681B6A9A4206D1FB6803F470127B68CC
:101E3C005B6A9A4201D0012300E000231846183750
:101E4C00BD4680BD00100240007000406000424260
:101E5C0080B584B000AF786039607B68002B01D10D
:101E6C000123D0E06A4B1B6803F007033A689A42DF
:101E7C0010D9674B1B6823F0070265493B68134375
:101E8C000B60634B1B6803F007033A689A4201D05E
:101E9C000123B8E07B681B6803F00203002B20D001
:101EAC007B681B6803F00403002B05D0594B5B685F
:101EBC00584A43F4E06353607B681B6803F00803E3
:101ECC00002B05D0534B5B68524A43F4605353606C
:101EDC00504B5B6823F0F0027B689B684D491343C1
:101EEC004B607B681B6803F00103002B40D07B68C0
:101EFC005B68012B07D1474B1B6803F40033002BA5
:101F0C0015D101237FE07B685B68022B07D1414B25
:101F1C001B6803F00073002B09D1012373E03D4BC8
:101F2C001B6803F00203002B01D101236BE0394B3A
:101F3C005B6823F003027B685B68364913434B6094
:101F4C00FFF744FAF8600AE0FFF740FA0246FB6834
:101F5C00D31A41F28832934201D9032353E02D4B1B
:101F6C005B6803F00C027B685B689B009A42EBD1C8
:101F7C00274B1B6803F007033A689A4210D2244B94
:101F8C001B6823F0070222493B6813430B60204B6C
:101F9C001B6803F007033A689A4201D0012332E030
:101FAC007B681B6803F00403002B08D0194B5B689B
:101FBC0023F4E0627B68DB68164913434B607B6853
:101FCC001B6803F00803002B09D0124B5B6823F449
:101FDC0060527B681B69DB000E4913434B6000F0B9
:101FEC0021F802460B4B5B681B0903F00F030A49EF
:101FFC00CB5C22FA03F3094A1360094B1B681846A1
:10200C00FFF7A2F9002318461037BD4680BD00BF6C
:10201C0000200240001002403C2900084000002033
:10202C004400002080B487B000AF0023FB60002385
:10203C00BB6000237B6100237B6000233B611E4B54
:10204C005B68FB60FB6803F00C03042B02D0082BCD
:10205C0003D027E0194B3B6127E0FB689B0C03F096
:10206C000F03174AD35C7B60FB6803F48033002BAF
:10207C0010D0114B5B685B0C03F00103114AD35C6D
:10208C00BB607B680D4A02FB03F2BB68B2FBF3F347
:10209C007B6104E07B680C4A02FB03F37B617B6988
:1020AC003B6102E0054B3B6100BF3B6918461C37A6
:1020BC00BD4680BC704700BF0010024000127A0081
:1020CC004C2900085C29000800093D0080B485B04B
:1020DC0000AF78600A4B1B680A4AA2FB03235B0A19
:1020EC007A6802FB03F3FB6000BFFB685A1EFA60C0
:1020FC00002BF9D100BF00BF1437BD4680BC704720
:10210C0040000020D34D621080B582B000AF7860E3
:10211C007B68002B01D1012341E07B6893F83D30B3
:10212C00DBB2002B06D17B68002283F83C20786858
:10213C00FEF7EEFF7B68022283F83D207B681A686D
:10214C007B6804331946104600F056FA7B6801226E
:10215C0083F846207B68012283F83E207B680122AD
:10216C0083F83F207B68012283F840207B680122A2
:10217C0083F841207B68012283F842207B6801228E
:10218C0083F843207B68012283F844207B6801227A
:10219C0083F845207B68012283F83D2000231846F4
:1021AC000837BD4680BD000080B485B000AF7860B4
:1021BC007B6893F83D30DBB2012B01D0012335E075
:1021CC007B68022283F83D207B681B68DA687B6899
:1021DC001B6842F00102DA607B681B68164A934266
:1021EC0009D07B681B68B3F1804F04D07B681B68F7
:1021FC00124A934211D17B681B689B6803F007035A
:10220C00FB60FB68062B10D07B681B681A687B6828
:10221C001B6842F001021A6007E07B681B681A68B1
:10222C007B681B6842F001021A60002318461437C1
:10223C00BD4680BC704700BF002C0140000400402C
:10224C0080B584B000AF78607B681B68DB68FB608E
:10225C007B681B681B69BB60BB6803F00203002B27
:10226C0020D0FB6803F00203002B1BD07B681B689B
:10227C006FF002021A617B6801221A777B681B6877
:10228C009B6903F00303002B03D0786800F098F9E6
:10229C0005E0786800F08BF9786800F09AF97B68B3
:1022AC0000221A77BB6803F00403002B20D0FB68D4
:1022BC0003F00403002B1BD07B681B686FF0040237
:1022CC001A617B6802221A777B681B689B6903F48E
:1022DC004073002B03D0786800F072F905E0786841
:1022EC0000F065F9786800F074F97B6800221A77C1
:1022FC00BB6803F00803002B20D0FB6803F0080335
:10230C00002B1BD07B681B686FF008021A617B687E
:10231C0004221A777B681B68DB6903F00303002B2C
:10232C0003D0786800F04CF905E0786800F03FF9CC
:10233C00786800F04EF97B6800221A77BB6803F0CE
:10234C001003002B20D0FB6803F01003002B1BD0D4
:10235C007B681B686FF010021A617B6808221A7781
:10236C007B681B68DB6903F44073002B03D078682F
:10237C0000F026F905E0786800F019F9786800F0AB
:10238C0028F97B6800221A77BB6803F00103002B45
:10239C000CD0FB6803F00103002B07D07B681B6893
:1023AC006FF001021A617868FEF71EFEBB6803F03D
:1023BC008003002B0CD0FB6803F08003002B07D0AC
:1023CC007B681B686FF080021A61786800F06FFA06
:1023DC00BB6803F04003002B0CD0FB6803F04003F8
:1023EC00002B07D07B681B686FF040021A6178687D
:1023FC0000F0F8F8BB6803F02003002B0CD0FB684E
:10240C0003F02003002B07D07B681B686FF02002C1
:10241C001A61786800F042FA00BF1037BD4680BDE3
:10242C0080B584B000AF786039600023FB737B68A3
:10243C0093F83C30012B01D10223B4E07B680122DC
:10244C0083F83C207B68022283F83D207B681B6864
:10245C009B68BB60BB6823F07703BB60BB6823F44D
:10246C007F43BB607B681B68BA689A603B681B68DB
:10247C00B3F5005F3ED0B3F5005F00F28780B3F593
:10248C00805F00F08680B3F5805F7FD8702B1AD008
:10249C00702B7BD8602B50D0602B77D8502B3CD036
:1024AC00502B73D8402B58D0402B6FD8302B64D086
:1024BC00302B6BD8202B60D0202B67D8002B5CD016
:1024CC00102B5AD062E07B6818683B6899683B68AF
:1024DC005A683B68DB6800F06AF97B681B689B688C
:1024EC00BB60BB6843F07703BB607B681B68BA6852
:1024FC009A604FE07B6818683B6899683B685A683B
:10250C003B68DB6800F053F97B681B689A687B6852
:10251C001B6842F480429A603CE07B6818683B6818
:10252C0059683B68DB681A4600F0CAF87B681B6880
:10253C005021184600F021F92CE07B6818683B68A4
:10254C0059683B68DB681A4600F0E8F87B681B6842
:10255C006021184600F011F91CE07B6818683B6894
:10256C0059683B68DB681A4600F0AAF87B681B6860
:10257C004021184600F001F90CE07B681A683B68B2
:10258C001B681946104600F0F8F803E00123FB73B2
:10259C0000E000BF7B68012283F83D207B680022AD
:1025AC0083F83C20FB7B18461037BD4680BD80B4B9
:1025BC0083B000AF786000BF0C37BD4680BC70475D
:1025CC0080B483B000AF786000BF0C37BD4680BCD0
:1025DC00704780B483B000AF786000BF0C37BD4645
:1025EC0080BC704780B483B000AF786000BF0C37FC
:1025FC00BD4680BC7047000080B485B000AF7860E9
:10260C0039607B681B68FB607B682B4A934207D060
:10261C007B68B3F1804F03D07B68284A934208D182
:10262C00FB6823F07003FB603B685B68FA6813433C
:10263C00FB607B68204A934207D07B68B3F1804FE4
:10264C0003D07B681D4A934208D1FB6823F4407386
:10265C00FB603B68DB68FA681343FB60FB6823F0A4
:10266C0080023B685B691343FB607B68FA681A6005
:10267C003B689A687B68DA623B681A687B689A6286
:10268C007B680D4A934203D13B681A697B681A63D5
:10269C007B6801225A617B681B6903F00103002BE4
:1026AC0005D07B681B6923F001027B681A6100BFAF
:1026BC001437BD4680BC7047002C0140000400401C
:1026CC0080B487B000AFF860B9607A60FB681B6AB1
:1026DC007B61FB681B6A23F00102FB681A62FB68D2
:1026EC009B693B613B6923F0F0033B617B681B01F9
:1026FC003A6913433B617B6923F00A037B617A6976
:10270C00BB6813437B61FB683A699A61FB687A6921
:10271C001A6200BF1C37BD4680BC704780B487B0BE
:10272C0000AFF860B9607A60FB681B6A7B61FB687C
:10273C001B6A23F01002FB681A62FB689B693B6101
:10274C003B6923F470433B617B681B033A69134379
:10275C003B617B6923F0A0037B61BB681B017A6939
:10276C0013437B61FB683A699A61FB687A691A6268
:10277C0000BF1C37BD4680BC704780B485B000AF2D
:10278C00786039607B689B68FB60FB6823F07003A2
:10279C00FB603A68FB68134343F00703FB607B68FC
:1027AC00FA689A6000BF1437BD4680BC704780B48D
:1027BC0087B000AFF860B9607A603B60FB689B68DB
:1027CC007B617B6923F47F437B613B681A027B68E6
:1027DC001A43BB6813437A6913437B61FB687A69BC
:1027EC009A6000BF1C37BD4680BC704780B485B072
:1027FC0000AF786039607B6893F83C30012B01D1D5
:10280C00022341E07B68012283F83C207B68022292
:10281C0083F83D207B681B685B68FB607B681B68EA
:10282C009B68BB60FB6823F07003FB603B681B6814
:10283C00FA681343FB607B681B68FA685A607B6814
:10284C001B68144A934209D07B681B68B3F1804F14
:10285C0004D07B681B68104A93420CD1BB6823F0F0
:10286C008003BB603B685B68BA681343BB607B68E2
:10287C001B68BA689A607B68012283F83D207B68EC
:10288C00002283F83C20002318461437BD4680BC38
:10289C00704700BF002C01400004004080B483B09E
:1028AC0000AF786000BF0C37BD4680BC704780B469
:1028BC0083B000AF786000BF0C37BD4680BC70475A
:1028CC0070B500260C4D0D4C641BA410A64209D10A
:1028DC0000F022F800260A4D0A4C641BA410A642F4
:1028EC0005D170BD55F8043B98470136EEE755F815
:1028FC00043B98470136F2E760290008602900087C
:10290C00602900086429000803460244934200D160
:10291C00704703F8011BF9E7F8B500BFF8BC08BC19
:10292C009E467047F8B500BFF8BC08BC9E46704781
:10293C000000000000000000010203040607080963
:10294C0002030405060708090A0B0C0D0E0F1010E4
:04295C000102000074
:042960003101000839
:042964000D01000859
:10296800010000000100000001000000010000005B
:10297800010000000100000001000000010000004B
:10298800010000000100000001000000010000003B
:102998000100000005000000030000000200000024
:0C29A80000127A00100000000100000086
:04000005080012DD00
:00000001FF
